:020000040800F2
:10000000B016002049020008D71200087D0D000834
:1000100000000000000000000000000000000000E0
:100020000000000000000000000000005501000872
:100030000000000000000000E9010008350200088F
:1000400079020008790200087902000879020008A4
:100050007902000879020008A90A0008E10A0008EC
:100060007902000879020008790200087902000884
:100070007902000879020008790200087902000874
:100080005517000879020008000000004D1600080E
:10009000AD1600080D170008790200087902000863
:1000A0007902000879020008790200088D1800081A
:1000B000790200080000000079020008000000003A
:1000C0000748854600F02AF902F000FF00210348A6
:1000D00002F084FF02F00EFFFEE700007401002032
:1000E000B016002080F309887047EFF3098070474D
:1000F000684680F3098806480078C00703D10320CA
:1001000080F314887047022080F314887047000041
:100110009C570008064B9C46EFF305831B0605D150
:10012000EFF31483DB0701D000DF70476047000066
:1001300025310008064B9C46EFF305831B0605D1CD
:10014000EFF31483DB0701D000DF70476047000046
:1001500011330008EFF309808169891E09780029AD
:100160002BD1A6461FC8A4467446E047EFF3098387
:1001700007C31A4B06CB91421CD0083B00290DD077
:10018000EFF3098020388862F0C044464D46564659
:100190005F46F0C00CB403F035FB0CBC1A60906AEB
:1001A0001030F0C8A046A946B246BB4680F3098885
:1001B0002038F0C80220C043004710B5084A126832
:1001C000914209D8074C89006458A6461FC8A44626
:1001D000F047EFF309840FC410BD0000A801002010
:1001E000980300089803000803F0ECF9104B06CBC5
:1001F00091421AD0083BEFF3098020388862F0C0A2
:1002000044464D4656465F46F0C00CB403F0FAFA39
:100210000CBC1A60906A1030F0C8A046A946B246DD
:10022000BB4680F309882038F0C80220C04300474D
:10023000A801002003F086FBD8E7000002F00CFFC5
:1002400003F080FBD2E700000C4880F308880C48DC
:100250000168090E0B4A914205D10B480B49016018
:100260000B480C4901600C4880470C480047FEE7EA
:10027000FEE7FEE7FEE7FEE7FEE70000B01600201F
:10028000040000001F0000001810024001000000E0
:100290000000014000000000B9150008C10000087E
:1002A00030B50B46014600202022012409E00D460E
:1002B000D5409D4205D31D469540491B2546954096
:1002C00040191546521E002DF1DC30BD70B50024DA
:1002D0002546002801DA01244042002901DA0125DF
:1002E0004942FFF7DDFFAC4200D04042002C00D075
:1002F000494270BD0321001D401E037812021A43BB
:10030000491EF9D510467047034603220870000ABB
:10031000491C521EFAD5184670470000064C0125AC
:10032000064E05E0E36807CC2B430C3C984710349D
:10033000B442F7D3FFF7C8FECC570008EC570008CB
:1003400070B58C180578401C6B075B0F01D10378E2
:10035000401C2A1106D10278401C03E006780E707A
:10036000401C491C5B1EF9D12B0705D40023521EEB
:100370000DD40B70491CFAE70378401CCB1A921C71
:1003800003E01D780D70491C5B1C521EF9D5A1427B
:10039000D8D3002070BD000000000000836A0B432A
:1003A000836242617047016170470029816801D012
:1003B000012200E002221143816070470029C168D8
:1003C00002D00122114301E049084900C160704791
:1003D000C26802239A43C260C2680A43C26070477F
:1003E000064910B5884208D144150121204600F085
:1003F000FFFF0021204600F0FBFF10BD002401405C
:10040000F8B50024002819D10D4E0E4F20461422B5
:10041000002165005043C0198A009219525B4B00BD
:10042000C252491CC9B20A29F6D30A2100F036FF8C
:100430000549641CE4B24853022CE7D30020F8BD00
:100440004005002068050020A000002082680021EF
:100450000123DB071A4382600F231B038268491CB8
:10046000D20FD207994201D0002AF7D18168002922
:1004700001DB006C70470020704702460020CB0172
:1004800004D5926801231B069A4300E012680A42D1
:1004900000D001207047000030B5C268084B8C685E
:1004A0001A400B680D792343CC686D032C4323431A
:1004B0000C69496923430B431343C36030BD0000FB
:1004C00003D2FFFF8168042211438160704700213D
:1004D000016001718160C16001614161704700008C
:1004E00070B5114B00241A5C0A2A01D2521C00E09C
:1004F00000221A54142242430C4D185C5519400036
:10050000295228460A2101F031FD02204100695E8E
:10051000401C0C19C0B20828F8D306212046FFF76A
:10052000D5FE80B270BD00005200002018050020EA
:1005300070B5114B00241A5C052A01D2521C00E050
:1005400000221A540A2242430C4D185C55194000EF
:1005500029522846052101F009FD01204100695E6C
:10056000401C0C19C0B20428F8D303212046FFF721
:10057000ADFE00B270BD0000170000206C0400202A
:1005800070B51348114D808D1249002462008A5ABB
:10059000904207D2641CA4B262008A5A002AF5D1A4
:1005A0000D4811E0002C0ED062005318403B8A5ACF
:1005B000DB8F801A991A0A225043FFF787FE0A211F
:1005C0004C43201A00E00020288170BD5A00002012
:1005D000D403002038540008DC050000F0B500F01A
:1005E000CDFE2849294A4881FF234B27E124264E86
:1005F000F5333F01E400254DC8324039002805D0CD
:10060000012807D0022812D003281DD00E864B8760
:100610004F8608E01C4832300886FF20C3304887E8
:100620001948323848868C86CD860A87F0BD17482F
:100630000A864B8764304886AF20000188861448BC
:10064000C8861348C8301AE00E4A124BC03A108DC3
:10065000DC78A04203D1548D1D79AC42E6D0D8702D
:10066000528D1A71088603464A878018643B0246F9
:100670004B868886FF322D32FF30CA86F5300887D8
:10068000F0BD000014040020140500003408000030
:100690001C0C00005A000020FEB532200290714F61
:1006A00070483D46808E00248035C037002808D031
:1006B0006D48012181706B496422C98E5143C1800C
:1006C000C1E000F095FA01280ED0674B002298781F
:1006D000002811D09A70BFF34F8F65496348C860F6
:1006E000BFF34F8F00BFFDE702215F4801248170F7
:1006F0006049C180E403A6E01020298E185E814283
:1007000002DCAE8E864203DC9A81DA8101241A7003
:100710003886688E7886B986A88EF886E88E3887FF
:10072000554E5648F179C180317941815878401C45
:10073000C0B25870322801D33220587000F06AFAE3
:10074000002808D010269E5F142E06DA587832282A
:1007500003D3042082E0022010E0688EB04201DD65
:1007600008200BE0288E0190B0420ADD3D48D98870
:10077000808D884201D8102163E020200443DA8074
:1007800061E0A88EB04245DD40210C430C21595E4A
:10079000891B0A31142956D980210C4332490E2273
:1007A0008A5EB11A323164290BD9FF222E490132F7
:1007B00014433238CE81B04200DAC881012008707B
:1007C00003E029480078FA281FD80120400204439A
:1007D000254825490078401C087008460E21415ED6
:1007E0008819C10F081841101F48C1811D48C28DCA
:1007F000818D0091501A698FFFF768FD0199711A78
:100800004843009940181849C8801748868101203C
:10081000800207E0E88EB04206DB1248C08DD88027
:100820000120C00204430EE0288FB04214DB0120F7
:10083000000304430B48D988C08D884203D90121A5
:1008400049030C43D88008486421C088A885FFF775
:1008500027FDE8857C87FEBD012080030443054811
:10086000F0E70000540300205A0000200400FA05BD
:1008700000ED00E0102700002500002054040020B7
:1008800010B5274CE188002924D063890C22C81AAE
:1008900000B21E303C2805D920468078994209D9FB
:1008A0000C2801D2A27010E0401CC0B2A070112828
:1008B00009D80AE00C2801D9A27004E0401EC0B299
:1008C000A070462801D2A2706181E078401CE070DF
:1008D0000020E08013496089C8876178491CC9B24B
:1008E0006170E278462A0ED34622E2700E4A0F4B20
:1008F00082180B489A42007802D30122104301E08B
:10090000400840002070052905D30520607020783C
:100910000221084302E02078FD210840207010BD2C
:1009200044000020D4030020E8C3FFFFB71A0000F2
:10093000F8B500240C4E25460427781BC000315A18
:100940008019406800F0BEF920430446042D00D20F
:1009500044006D1CADB2052DEFD304481F21448324
:100960004C408483F8BD000054550008D403002097
:1009700001494860704700000000024000290168FA
:1009800002D00122114301E0014A11400160704789
:10099000FEFF00000168184A11400160002101605B
:1009A00041608160C1601549144A0839904202D102
:1009B00048680F2205E0114A1432904204D1486879
:1009C000F0221043486070470C4A2832904203D10D
:1009D00048680F221202F4E7084A3C32904203D1E1
:1009E00048680F221203ECE7044A50329042EAD1E1
:1009F00048680F221204E4E7FEFF000008000240EE
:100A0000034A0146126800200A4200D001207047C4
:100A10000000024030B503680C4A0C6A13408A6833
:100A20004D6922430C692C4322438C692243CC69D3
:100A300022434C6A22438C6A22431A430260CA68EA
:100A400042600A6882604968C16030BD0F80FFFF64
:100A500010B5094C0121204600F097FE002201212B
:100A6000204600F0ABFE0021204600F0AFFE002142
:100A7000204600F08DFE10BD0020004010B5094C4E
:100A80000121204600F081FE00220121204600F0D5
:100A900095FE0021204600F099FE0021204600F03E
:100AA00077FE10BD0040014010B5082000F034F87A
:100AB00000280FD0082000F029F803F043FC064876
:100AC0000178322906D30021017004490120087001
:100AD00003F060FC10BD00006C00002058000020F6
:100AE00010B5102000F018F800280BD0102000F0EE
:100AF0000DF805480178012904D10021017008464C
:100B000003F048FC10BD0000580000200149486176
:100B10007047000000040140054B024619680020A0
:100B20005B691140134202D0002900D001207047B8
:100B30000004014010B5837918490268002B26D0C3
:100B40000B6893430B604A6803689A434A600279D2
:100B5000521813680468234313608A6803689A4331
:100B60008A60CA6803689A43CA604279102A05D02D
:100B700051180A68006802430A6010BD8A68036859
:100B80001A438A60CA6800680243CA6010BD0079CF
:100B9000401801689143016010BD0000000401404D
:100BA00010B5FFF71BFD00F0B9F8FFF775FDFFF773
:100BB000E7FC0248008903F051FB10BD5A000020F9
:100BC00010B50948C08D0A2803D9002002F09CF80E
:100BD00010BD06490878401CC0B208700528F7D33C
:100BE00000200870F1E70000D4030020640000201A
:100BF00010B5002001F0A6FF002809D1012001F066
:100C0000A1FF002804D1022001F09CFF002800D0A1
:100C1000012010BD0648808B410706D504494031AC
:100C20008887000701D4002070470120704700002A
:100C3000D4030020F0B50022032501230C68934063
:100C40001C409C422AD10C79012C01D0022C12D1DB
:100C5000876854002E46A640B74387604E79A64069
:100C600084682643866084889C43848084888B794A
:100C700093401C438480066853002C469C40A64346
:100C800006600E7907689E403E430660C668A6432C
:100C9000C660CC799C40C3681C43C460521C102AB7
:100CA000CBD3F0BD4B07DB0E9A40C90810B58900C5
:100CB0000818016A0F249C40A1430162016A114394
:100CC000016210BD0246128A00200A4200D00120B3
:100CD00070470246928A00200A4200D001207047E5
:100CE0000185704781617047002A01D0816170479A
:100CF0000185704710B5074805490068FFF7D0FA2D
:100D00000549097840183C21FFF7CAFA084610BD8A
:100D100040420F00800000209C0000200649162061
:100D2000085E0649088006490A780649002A00D06C
:100D30000548088270470000D4030020940000207A
:100D4000900000205A000020B822000010B5084989
:100D50000978081A3C213C30FFF7B8FA06480C46DF
:100D600004490068FFF79CFA2018C0B210BD0000CB
:100D70009C00002040420F0080000020FEE710B5DC
:100D800000F002F810BD0000F8B51D4F0C460546F6
:100D9000164640213846FFF7A3FF00F00CF9AE20BD
:100DA00000F0E6F800F034F9200A00F0E1F800F075
:100DB0002FF9E0B200F0DCF800F02AF900F0FBF8BF
:100DC000AF2000F0D5F800F023F940213846FFF7B6
:100DD00089FF0024761E06E0012000F067F8641CFD
:100DE0002870A4B26D1CB442F6DB002000F05EF85F
:100DF000287000F0F6F8034801F050FA0020F8BD22
:100E000000040048B80B000010B500F001F810BD58
:100E1000F7B5074688060E46800E40210C1A154687
:100E2000A24200D8ECB222463146384600F006FE17
:100E3000002830D1281B05042D0C2ED0301980B28B
:100E40003F19AE09019015E00A2440223846019965
:100E500000F0F4FD002806D0641EE4B20A2001F080
:100E60001DFA002CF1D10198403D403080B2ADB266
:100E7000403701903046761EB6B20028E4D10A20F1
:100E800001F00CFA002D08D0EAB23846019900F0C2
:100E9000D5FD002803D00120FEBD0020FEBD024884
:100EA00001F0FCF9F9E70000B80B0000F8B50646C0
:100EB000002400F01DFB1D4F0025002000F038F835
:100EC000022001F0EBF9012000F032F86006040E78
:100ED00080213846FFF7F6FE002801D0641CE4B2FA
:100EE000012001F0DBF96D1CEDB2082DE5D3002ED9
:100EF00015D0002000F01CF800F008FB002000F0E6
:100F000027F8022001F0CAF9012000F011F80220B0
:100F100001F0C4F9002000F00BF82046F8BD0020D5
:100F200000F006F800F0F2FA0120E8E700040048BB
:100F3000FF210131054A10B50128104602D0FFF704
:100F4000CFFE10BDFFF7CEFE10BD0000000400482C
:100F500010B5064A012804D080211046FFF7C0FED4
:100F600010BD80211046FFF7BDFE10BD00040048F3
:100F700070B5054600F0CAFA0020FFF7D9FF00243B
:100F8000E80900D00120FFF7E3FF6806050E022004
:100F900001F084F90120FFF7CBFF022001F07EF978
:100FA0000020FFF7C5FF022001F078F9641CE4B2CD
:100FB000082CE5D370BD10B500F0A8FA0120FFF7AA
:100FC000C7FF0120FFF7B4FF042001F067F90020FC
:100FD000FFF7BEFF042001F061F90020FFF7A8FF32
:100FE00010BD10B500F092FA0020FFF7A1FF00201D
:100FF000FFF7AEFF042001F051F90120FFF798FF41
:101000000120FFF7A5FF042001F048F910BD000002
:1010100070B5002400F06CFA0120FFF799FF012061
:1010200001F03CF90120FFF783FF012001F036F9C0
:10103000094D07E0641CE4B2FA2C03D9FFF7D1FF95
:10104000012070BD80212846FFF73CFE0028F1D129
:10105000FFF76EFF002070BD000400480249014800
:1010600008607047CCCC00000030004002490148C5
:1010700008607047AAAA000000300040014948609B
:101080007047000000300040014988607047000050
:101090000030004001490860704700000030004007
:1010A00030B5012185B0880400F07EF908250024C0
:1010B000684602950473C47302A90F48FFF7BAFD8E
:1010C0000121084600F088F90321012000F030FAE0
:1010D0000095684604710C21417101258571FFF767
:1010E00029FD0621684601748574447404A800F043
:1010F000F3F805B030BD00000004004830B5012110
:1011000085B0880400F050F9102500246846029547
:101110000473C47302A90F48FFF78CFD0121084630
:1011200000F05AF90421012000F002FA0095684607
:1011300004710821417101258571FFF7FBFC07212E
:10114000684601748574447404A800F0C5F805B0BD
:1011500030BD00000004004810B500F0F5F8002193
:10116000084600F00BF80021084600F039F800F0BE
:1011700069F8FFF795FFFFF7C1FF10BD7FB50D467A
:1011800004460121080200F01BF92F226846028064
:10119000019400240481114E44800121304600F066
:1011A000F4FA6946304600F013FB0122114630463E
:1011B00000F004FB012D02D0FFF74AFC7FBD0121A6
:1011C000304600F0E5FA1320694608734C7301209D
:1011D000887303A800F080F87FBD00000020004065
:1011E0007FB50D4604460121080400F0F5F82F22D2
:1011F00068460280019400240481114E448001213C
:10120000304600F0C2FA6946304600F0E1FA0122A9
:101210001146304600F0D2FA012D02D0FFF72EFC25
:101220007FBD0121304600F0B3FA142069460873EF
:101230004C730120887303A800F04EF87FBD0000B6
:10124000004001407FB50121FE24480400F0C4F8AD
:101250002F2069460880019400240C810E4D4C809B
:101260000121284600F091FA6946284600F0B0FABC
:1012700001221146284600F0A1FA0121284600F07B
:1012800087FA1520694608734C730120887303A8F8
:1012900000F022F87FBD00000044014070B5022933
:1012A00017DD048800262546324609E05300C35A5C
:1012B0009E19A34200D91C46AB4200D21D46521CC7
:1012C0008A42F3DB301B401B891EFEF7FFFF80B212
:1012D00070BD002070BD704730B582780124017860
:1012E000002A15D08B080E4A9B009A1813688907AC
:1012F000C90EFF258D40AB434578AD072D0E8D40BF
:101300001D4315600078C006C00E8440054804E007
:10131000C806C00E844003488030046030BD000021
:1013200000E400E000E100E010B5FF2109200131F8
:10133000C006FFF7D7FC10BD10B5FF210920013111
:10134000C006FFF7CDFC10BD7CB50121480400F0BC
:101350002BF8FF2401340120694600940871002015
:101360008871032009254871ED062846FFF762FCC5
:1013700021462846FFF7B6FC7CBD00000948818B5A
:1013800000208A0709D08A07920F012A06D0022A74
:1013900006D0C943890700D1032070470120704758
:1013A00002207047D4030020044A0029516901D06B
:1013B000014300E08143516170470000001002408A
:1013C000044A0029D16901D0014300E08143D16181
:1013D0007047000000100240044A0029916901D0C2
:1013E000014300E08143916170470000001002401A
:1013F000044A0029D16801D0014300E08143D16053
:101400007047000000100240F8B5334E0446706883
:101410000C21324D084003D0042801D0082801D007
:10142000256012E07168706803228902D2030F0FF1
:101430001040BF1C00281CD0F06A0107090F284685
:10144000491CFEF72DFF784320607068244B00068E
:10145000000F1A5C20680146D14061607268520535
:10146000520F9A5CD140A160326BD20505D41D4A5F
:1014700009E01D4847432760E7E77268520401D43A
:101480004A0800E08A08E260326B184B520603D427
:10149000164A1232226100E02361326BD20601D477
:1014A000656100E06061326B92070FD0316B890794
:1014B000890F01290CD0306B8007800F022809D0DA
:1014C000306BC043800700D1A561F8BDA161F8BDB4
:1014D000A061F8BDA361F8BD0010024000127A00BF
:1014E0005E010020809FD50000093D0000800000C3
:1014F0001CB580200090002069460871C871024820
:10150000FFF798FB1CBD0000000400481CB58020BC
:10151000009001206946087100208871C87103207D
:1015200048710248FFF786FB1CBD0000000400481C
:101530008A0710B5120F0F2393408C080549A400A9
:1015400061188C689C438C608B68904003438B606F
:1015500010BD0000000001400CB50020009001907B
:101560001349112008601348416841604168416097
:1015700041687F22D2039143416041680522D20431
:1015800011434160016801221206114301600168A4
:101590008901FCD5416889088900416041680222BF
:1015A0001143416041680907890F0229FAD10CBD36
:1015B000002002400010024010B5144801680122CA
:1015C000114301604168124A114041600168114AAB
:1015D0001140016001680122920491430160416859
:1015E0003F22120491434160C16A09090901C162A5
:1015F000016BFF22543291430163416B490849005A
:10160000416300218160FFF7A7FF10BD0010024079
:101610000CB8FF08FFFFF6FE0B48818EC030002992
:101620000FD08189322901D8491C8181064AC1899C
:101630004032928D0A235A43914201D8491CC181FC
:10164000704700218181FAE75403002010B5154C42
:101650000121204600F0A6F8002822D001212046D2
:1016600000F090F80121204600F08FF80E4A107823
:10167000401CC1B21170012913D9606A14460C3C98
:10168000A17880B288420CD2081880B20121FFF7FD
:1016900075FDE07802F024FFE078062801D3FFF71B
:1016A000D7F910BD002000407800002070B5154D1E
:1016B0000121284600F076F8002821D00121284693
:1016C00000F060F80121284600F05FF80E4C6078C9
:1016D000401CC1B26170012912D9686A25460C3DCF
:1016E000698980B288420BD20026EE70304602F043
:1016F000F7FEA87826700121FFF740FDFFF7BEF93D
:1017000070BD0000004001407800002010B50F4C73
:101710000121204600F046F8002816D0012120467D
:1017200000F030F80121204600F02FF80848416908
:10173000FF3141618169491C816102F0F7FEFF20A0
:1017400002F0E4FEFF2002F0B7FE10BD00440140AD
:101750006C00002010B5094C0121204600F022F851
:1017600000280AD00121204600F00CF80121204673
:1017700000F00BF802480068804710BD00040040EC
:10178000CC000020C94301827047C94301827047E1
:101790000029018802D00122114301E049084900D3
:1017A000018070470246138A002092890B400A404C
:1017B000002B02D0002A00D001207047002A828925
:1017C00001D00A4300E08A4382817047416270473A
:1017D00010B50288144B984206D00124A407A042F9
:1017E00002D0124CA04203D17024A2434C88224361
:1017F0000F4CA04203D00F4C22400C8922430280A0
:101800004A68C2620A880285984208D00A4A904211
:1018100005D00A4A904202D0094A904201D1897A01
:1018200001860121818210BD002C0140000400408E
:1018300000100040FFFC0000004001400044014057
:101840000048014070B50F4D7D242868E400A04297
:1018500017D32146FEF724FD0B4A2960518808184A
:1018600080B25080A0420CD3001B50801078401CE6
:10187000C0B210703C2804D35178491C51703C38D8
:10188000107070BD800000209C00002070B5114DCC
:10189000114C2946204600F03FF801280AD10F4A92
:1018A00000209081D0812946204600F01FF80C4886
:1018B000006880470B4D2046294600F02DF801288E
:1018C00006D12946204600F011F8074800688047F5
:1018D00070BD00000501050000380140140400201F
:1018E000C400002007010700C8000020090C0122E5
:1018F0008A40026270470029016802D00122114328
:1019000001E049084900016070470246D2690020A1
:101910000A4200D00120704730B50A04130E012599
:101920002A4600248A40012B0ED0022B0ED0836859
:10193000090C1340C0698D402840002B02D00028BC
:1019400000D00124204630BD0368F1E74368EFE78B
:1019500010B50B041C0E01238B40022C02D0032C6B
:1019600002D002E0001D00E008300168002A01D02A
:10197000194300E09943016010BD000070B50446B2
:10198000006888B00D464008400020606068032170
:1019900009038843A9680143616020682149EA6816
:1019A0000840696811432A69024311432160A06815
:1019B00003210902884369690143A1606846FFF772
:1019C00023FD1948844201D1069800E0029821685D
:1019D0000904296801D5490000E089001922504313
:1019E000FEF75EFC06466421FEF75AFC0501280955
:1019F000642148432168301A090407D5C0006421D6
:101A00003230FEF74DFC4007400F06E00001642134
:101A10003230FEF745FC0007000F2843A08108B0D4
:101A200070BD0000F3E9FFFF00380140808CC00565
:101A3000C00D7047C905C90D01857047F8B5174F2E
:101A40000C460646154640213846FFF749F9FFF790
:101A5000B2FAAE20FFF78CFAFFF7DAFA200AFFF7A6
:101A600087FAFFF7D5FAE0B2FFF782FAFFF7D0FA6C
:101A7000002406E0305DFFF77BFAFFF7C9FA641C2B
:101A8000A4B2AC42F6D3FFF7ACFA40213846FFF7D8
:101A900029F9034800F002FC0020F8BD00040048CA
:101AA000B80B000030B47446641E2578641CAB4249
:101AB00000D21D46635D5B00E31830BC184702E0AE
:101AC00008C8121F08C1002AFAD1704770470020C9
:101AD00001E001C1121F002AFBD1704710B5002A96
:101AE00006DA52005208D21DD308DB00102203E0B0
:101AF000D21C93089B000C22002B02D09C188C4215
:101B000001D9012010BD8218836041180260416034
:101B1000C91AD018884202D810600246F9E700209E
:101B2000106010BD08480178084881804288521C26
:101B300042800748002903D0F021C171012070477D
:101B40000021C17108467047440000205404002061
:101B5000250000201148808E002801D00020704709
:101B60000E4800228030C08A0D49142805D90D4B3B
:101B7000984202D00C4B984202D90120487000E0F4
:101B80004A704878094908810549491D002803D051
:101B9000F0200871012070470A71DFE7540300202C
:101BA00020000020FF7F0000480D000054040020AA
:101BB0000948808E00280DD0074907484031C030C1
:101BC000898DC0890A225143884201D30120704780
:101BD0000028FCD0002070475403002000207047EC
:101BE00070470000F8B5284E0020358FFEF708FC3E
:101BF000264F31463888C03148823446E907803460
:101C0000002905D00E22B25E7C2100F011FA00E01E
:101C10000020E08201242846E040C00707D0600091
:101C200082190821515E385A00F038FA00E018484D
:101C3000610089198031641CA4B2C882022CEAD3E5
:101C4000144F00246500A8199621415EE0B2FEF70A
:101C50006FFC641CA4B27853022CF3D30D49091F06
:101C60000878401CC0B208700A280BD30A200870FC
:101C7000002041007A5A89198031401C80B2CA8202
:101C80000228F6D3F8BD000054030020A000002075
:101C9000FF7F00001A000020F8B500250C2029461F
:101CA000414351482F460E18142047434F484036B1
:101CB0003C18718A22891140022902D161880129C8
:101CC0001AD04B4AA900515820468847474AE38911
:101CD000D25B61881A43237B1B021A4300920129BD
:101CE00006D002290BD003292ED0042970D141E05F
:101CF000012802D002286BD06CE0308A10E0718A93
:101D000022893A4E1140022962D0012804D00228CB
:101D100060D00020E0805BE0E088002803D0401E17
:101D2000E080022055E003206080A2880021009816
:101D3000FFF756FFF553E8B2012100F0A9F8A1889A
:101D4000009801F053F845E0718A22890A40022A7E
:101D500004D0012844D0002802D03BE0002004E059
:101D600060890140042903D1308AE080042030E0FA
:101D700003202EE0718A22891C4E1140022904D0D2
:101D8000002814D001282BD024E0A288012100983B
:101D9000FFF726FF009801F04DF8F553E8B2002157
:101DA00000F076F8012060800020E08012E0E088FA
:101DB000002801D0401ED8E7A28801210098FFF733
:101DC0000FFFE8B2002100F063F8009801F032F84C
:101DD000012060806D1CADB2042D00D25EE7F8BD1D
:101DE0000020E080C4E700005403002080040020AD
:101DF0003000002010B507490878401CC0B20870B8
:101E00000A2803D300200870FFF746FF00F012F8FD
:101E100010BD00002000002010B500F06FF903484D
:101E200000F09AFE02490020088110BD80040020C5
:101E30005403002010B51448408C00281FD0C3075D
:101E400000221249002B07D00878401CC0B208704D
:101E500005280DD30A7008E083070AD54878401C8E
:101E6000C0B24870032803D34A70022000F04CFF30
:101E700010BD4007F9D4022000F030FF10BD022051
:101E800000F0FCFE10BD0000D40300202200002062
:101E90000122054B8240588C012902D0904358847E
:101EA00070471043FBE70000D4030020F0B503881F
:101EB00000254C1E93421CD84B00C35A934218D3A2
:101EC00015E02B19DE0FF3185B105F00C65B96421E
:101ED00008D83F187F88974204D95F1C8F4201DAE7
:101EE00018B2F0BD964201D95C1E00E05D1CA5420F
:101EF000E7DD0020C043F0BD00F0D6FEFFF78CFF09
:101F00001748FFF7C7F80320FFF7B8F81548FFF7A1
:101F1000BBF8FFF7ABF8FFF7A1F80025124CFFF76D
:101F200091FCFFF767FFFEF74BFEFFF775FB20788C
:101F3000401CC0B22070052802D32570FFF796F828
:101F40006078401CC0B260700A2804D36570FEF748
:101F5000EFFC00F09FF9642000F0AAFFDFE700002B
:101F600055550000350C000014000020F0B500238A
:101F70000FE01A465E0008E05700845FC55FAC4280
:101F800001DD8553C453521CD2B28A42F4D35B1C88
:101F9000DBB28B42EDD3F0BDF8B52348FEF7AAF9CA
:101FA000002501462C462E46002814D011E0487921
:101FB0000A7900021043000A820715D08007800FBB
:101FC000012814D0761CF6B208460830FEF792F9C4
:101FD00001460029EBD128198019144F0028788573
:101FE0003E8507D0012106E06D1CEDB2ECE7641CD4
:101FF000E4B2E9E700210E2002F08AF8F88CA04252
:1020000002D3B88CA84203D201210F2002F080F83D
:10201000FC84BD84002C05D1002D03D100210F20AC
:1020200002F076F8F8BD0000D8040020D4030020A8
:10203000F7B5044617481C25418B455F491B0EB276
:10204000018BC08A091A0FB21249C0318C826421F7
:10205000FEF726F900038421FEF722F9C01E80B2A4
:10206000844201D20020FEBD7D2149018C4201D372
:102070000948FEBD201A7043410140183946FEF759
:1020800025F964214843029980124018281800B2AB
:10209000FEBD000054030020FF7F0000F8B50F468E
:1020A00001210903081A85B22A46BE211048FFF70C
:1020B000FDFE104E040018D40D4A6000115A80181D
:1020C0004038C08F0A22091A281A5043FEF7FEF83A
:1020D0000A21273C4C432018C0190F3800B2014692
:1020E000FF31054A1931914200D33046F8BD000056
:1020F00084520008FF7F00009106000010B50B48D5
:1021000000F040FF0A49002808600DD0094900206E
:10211000FEF7FAF80748002108388171C1710648B6
:102120004185C1848184018510BD00002C540008C4
:1021300040000020D8040020D4030020F8B5164B3E
:10214000144D588A2C8819460022898A844202D16B
:102150006C88A14200D001229B8E0024002B06D067
:102160000D4BC0339E89322E01D39C8101E0002AA1
:102170000FD02880698000F019FE054600F030FE7F
:10218000014600222B461046009400F053FA00F05E
:1021900085F9F8BD100000205403002010B5044656
:1021A0000088012204E05300E35A5840521C92B2C6
:1021B0008A42F8D310BD000008B5FEF79BFD164C0F
:1021C00020702078FEF7C2FD022819D96078002817
:1021D00016D10120114A10496070508A891C08806C
:1021E000928A4A8000F0E2FD054600F0F9FD0146C2
:1021F00000202B460246009000F01CFA00F04EF939
:102200006078012803D100F057FAFFF797FF0A2002
:1022100000F04EFED5E700000E0000205403002021
:1022200038B505460020694608800446284600F077
:10223000B7FB83B2142045430D4828184168002994
:102240000AD06A4605891288954202D84589954286
:1022500002D28089088003E0684600880880012453
:10226000002B03D1002C01D0002038BD012038BD47
:102270006C470008FEF73EFD054C01252070FEF777
:10228000FFFA6570FEF78CFC642000F011FEF6E7A3
:102290000C00002010B5FFF7A5FC10BD0022014680
:1022A00000E0491E0029FCD1521CD2B2042AF6D308
:1022B0007047000010B50A46022808D2054BC0003E
:1022C000195AC0184068FEF70FFD012010BD00200C
:1022D00010BD00007C55000830B5012193B04804C2
:1022E000FFF762F8374D0121C9072846FEF75BF872
:1022F00001214802FFF770F801210846FFF754F862
:10230000212006900320694608770024CC7706A98F
:102310006804FEF78FFC2846FEF762F86846FEF771
:10232000D6F8012069460094087102940494284666
:102330000594FEF7B1F8072221212846FEF72EF872
:102340002846FEF783F802212846FEF741F80121CE
:102350002846FEF733F801212846FEF726F801212A
:102360002846FEF78AF80028F9D02846FEF7AAF892
:10237000154D2846FEF70EFB12480A94403008908F
:102380001248099014200B9080200D9040000E9070
:1023900080000F90202010900C940002119008A94A
:1023A00012942846FEF736FB01212846FEF7E6FA8E
:1023B0000220FEF725FB0028FAD00220FEF7D8FA0B
:1023C00013B030BD00240140080002404005002049
:1023D000FEB5232001214004FEF7E6FF00256846F4
:1023E00005712C460127174E01E0032C02D26846E6
:1023F000C77101E06846C571E000315A009180194B
:1024000040686946FEF716FC641CE4B2052CECD368
:1024100069460F718D7103200A4D002448712835DB
:10242000E000295A0091401940686946FEF702FC15
:1024300001212046FFF73EFF641CE4B2022CEFD3DB
:10244000FEBD00005455000810B5FFF7C1FF10BDD8
:102450007CB501218804FEF7A7FFFF258135012007
:1024600069460095087100248C71CC7103200A4ED6
:1024700048713046FEF7DEFB29463046FEF732FC57
:102480004020009069468C713046FEF7D3FB402116
:102490003046FEF727FC7CBD0004004870B5064DB1
:1024A00000242878012802D00624204670BD28691F
:1024B000804700202870F8E7A400002070B50C4683
:1024C00009880025052923D141780A028178114322
:1024D0000279491C531E89B27C2B19D80023238012
:1024E00003230370238856005B1C238046702388D7
:1024F000801C5B1C2380002300F0C4F9002803D05B
:1025000000F0ABFD054604E020888019208000E043
:102510000325284670BDF8B50446088800270D46F7
:102520000A2844D360780102A0780843401C80B296
:102530000090E0782679000206436079227A010251
:10254000A079731E0843401C81B2E0790002024367
:10255000607A7C2B2AD8002A28D0792A26D85300E2
:10256000834223D1204601230A3000F08BF9002852
:1025700014D100212980172121702988601C491C51
:1025800029807400047029880023491C2980324660
:10259000401C009900F076F9002803D000F05DFDA2
:1025A000074604E028880019288000E00327384601
:1025B000F8BD10B509880024052902D0032420465F
:1025C00010BD417801230A028178C01C1143491CC7
:1025D00089B21A4600F056F90028F0D000F03DFD0F
:1025E0000446ECE770B50D460988002406291ED381
:1025F00041780A0281781143C278491C130202799A
:1026000089B21A434379561E772E10D85606360ED5
:102610009E420CD10123801D00F034F9002803D024
:1026200000F01BFD044603E00520288000E00324A1
:10263000204670BDF8B51C46069B17460546002986
:1026400006D0F72904D8144E08463171002D01D068
:1026500002241CE011493161114971611149F16095
:102660001149B1610021F161104931621049716273
:102670001049B1622246394600F07CF8040006D1C8
:1026800001F06CFF002804D07571012030702046E5
:10269000F8BD0324FBE70000A4000020592800082F
:1026A00075280008FD270008B12700082D460008FE
:1026B000DD4600089946000838B52D4C20780028E2
:1026C00001D0062038BD684601F03AFF01284DD1FF
:1026D00068460078002849D0012802D0022845D158
:1026E00011E0234AA369921D911CC81F9847002836
:1026F0003CD160782179884201D0002836D102206F
:1027000001F034FF32E0A06801210578A570E17086
:10271000174B00212C33CA009A5C002A0CD0AA4225
:1027200007D1C900C9184A681149891D9047E0704E
:1027300002E0491C1029EEDB6078002816D0E27810
:10274000002A0ED00020E080A17880200143A068FC
:102750000170E188491C89B2E1804254E088401C44
:10276000E080E368E2882079A1689847002038BDBE
:10277000A400002070B5154608460024082229460A
:1027800001F006FF01280ED14B200002854201D93D
:10279000232003E069000548FDF782FD80B201F0C7
:1027A00007FF012800D00324204670BDA07F17003A
:1027B000F7B5104D0746A88816460024FF2801D912
:1027C000C046C046A888042805D3A9880A4801F055
:1027D0002DFD002802D005242046FEBD06480078C5
:1027E0003870A888C01E308003480199401C0860DA
:1027F000F2E70000500100209005002070B5144C55
:10280000034660780025012802D00525284670BDC2
:10281000491E0126A160084666800B7061888918F0
:102820006180618801F002FD01466088094A131841
:10283000401C608019706088090A1218401C608072
:10284000117026700121002001F0DCFDDEE70000A0
:10285000500100209005002010B505490020487067
:102860000146012001F0CEFD01F010FE10BD000078
:102870005001002010B50021084601F0C3FD01F011
:10288000EFFD10BDFFB50646491E83B0154688B260
:1028900000276A4617710490FF21401901318842D0
:1028A0006BD8049C002B26D036480290012B65D1B2
:1028B00060E0642C06D22046142148433249401877
:1028C00040680BE020466E38462809D220460C218D
:1028D00048432E4940182E494018C06D008800E03A
:1028E0002C481080000A30701088641C6D1E7070B7
:1028F000A4B2ADB2B61C002DDBD13FE00498401964
:102900006F2836D830786946000208807178012235
:1029100008186946088014201B496043085A694614
:1029200000F0A8FB002801D0042727E00F2C06D1D7
:1029300002986946006B007808715A2804D0641C1C
:102940006D1EA4B2ADB215E0012080F310880246DE
:10295000002101A8FEF758FA02990020096B0880AF
:10296000BFF34F8F0D490C48C860BFF34F8F00BFB6
:10297000FDE70127002DC1D100E00127384607B04F
:10298000F0BD00006C4800086C4700083C4F000890
:1029900080FAFFFFFF7F00000400FA0500ED00E071
:1029A000FEB506464700F81D0C46F93081B20222FA
:1029B00002A8FEF7E4F93846FF30CB3081B202229C
:1029C0006846FEF7DCF9A525AD00781981B2022230
:1029D00001A8FEF7D4F9694608890988884208D118
:1029E0006A4692888A4204D1002800D020800020C4
:1029F000FEBD884205D06A469288904201D091423D
:102A000020D12080694608890A88904205D120801B
:102A10008B880A893146284611E08988884207D187
:102A20002180684603888288FF203146CB3006E04B
:102A30002280684603890288FF203146013000F079
:102A400007F8D4E7014820800120FEBDFF7F000089
:102A5000FFB585B0694604460A8016460546C83467
:102A60001F46A1B2022201A8FEF789F96946039028
:102A700088880222784070400881069840004019FA
:102A800081B26846FEF7C0F9039902224518A1B247
:102A900002A8FEF7B9F9401909B0F0BDFEB5064627
:102AA000684601800C46154602A96420FFF778FFAE
:102AB000AC4201D10120FEBD002802D00020C0435D
:102AC000FEBD694608890222684060408880740023
:102AD000E01DF93081B26846FEF796F905462046BA
:102AE000FF30CB3081B202226846FEF78DF94519DE
:102AF000A5208000201881B202226846FEF784F9E2
:102B00004419FF210222C93101A8FEF77DF90419F9
:102B10000222064901A8FEF777F90419D7210222FB
:102B2000890001A8FEF770F90019FEBD92020000AD
:102B300001461E39462903D9002801D000207047DC
:102B4000012070470349498CC140C80700D00120CB
:102B500070470000D4030020F0B50022104E174645
:102B6000142114464C432118CF8001234B800A23A3
:102B70005343F55A05539B195C880C819C884C8102
:102B80009C790C731B899400CB81064B521C1B59FA
:102B90000B61054B92B28B80042AE1D3F0BD00009B
:102BA0000254000830000020FFFF0000094B002005
:102BB00014214143CA185168002901D092890A8022
:102BC000401C80B26428F3D3034901200A8C0243DD
:102BD0000A8470476C470008D403002010B5B4B0D5
:102BE0001549CA226846FEF7CAF865216846FFF70C
:102BF000D5FA124B00280FD0002014214143CA18E7
:102C00005168002901D092890A80401C80B2642852
:102C1000F3D3002034B010BD00206A464100545A5E
:102C200014214143C9184968401C80B20C806428B3
:102C3000F4D30120EEE700005E0300006C470008BB
:102C400070B50D46040004D0002A02D12078012876
:102C500001D0802070BD204600F014FC002805D073
:102C60002946204600F004F8002070BD812070BD88
:102C700010B500F0EFFC00F0DDFC10BD10B5094A06
:102C8000002806D0012806D002280AD102211046C9
:102C900005E00421FBE7012109200903C006FEF736
:102CA00021F810BD000400481CB501218804FEF77E
:102CB0007BFB042000900120694608710020887188
:102CC0000320054C48712046FDF7B4FF042120463F
:102CD000FEF708F81CBD00000004004810B5094AC2
:102CE000002806D0012806D002280AD10221104669
:102CF00005E00421FBE7012109200903C006FDF7D7
:102D0000EFFF10BD0004004870B5144D01240028E9
:102D10000CD0012812D002281ED102212846FDF72E
:102D2000D8FF201AC2B20221284613E00421284607
:102D3000FDF7CFFF201AC2B20421F5E701250926CD
:102D40002D03F60629463046FDF7C3FF201AC2B20E
:102D500029463046FDF7C8FF70BD0000000400485A
:102D6000FFF772FBFFF7B8FAFFF772FBFEF7F4F913
:102D700001F058F900210B4800F030F90A4C00210D
:102D800020600848103000F029F9606005480021F3
:102D9000203000F023F9A0600020C04300F088F844
:102DA000FEE700003C47000800000020014600B597
:102DB0004B20C0010B00FEF775FE060406070A0D46
:102DC00010064B20800100BD4B20000200BD4B20AF
:102DD000400200BDE120000200BDE120400200BD34
:102DE0000148007D7047000054030020F8B50546F7
:102DF0000E480F46006800F0B3F8041E14D00C48CB
:102E00000646FDF777FA21460831FDF77DFA257170
:102E1000280A6071A771380AE07131462046FDF733
:102E200073FAFFF7B9F80120F8BD00004000002058
:102E3000D8040020F1B500261948FDF75BFA194FB8
:102E4000041E2AD01848408DC5B212E0607921795D
:102E5000000208436D1E0099EDB2884201D126465A
:102E600009E020460830FDF745FA002803D0274640
:102E70000446002DEAD1002E10D030460830FDF770
:102E800039FA39460831FDF73FFA084831460068FB
:102E900000F092F8FFF780F80120F8BD0020F8BD9F
:102EA000D8040020D0040020D403002040000020DB
:102EB00080B5EFF30581002901D0822080BD024F4B
:102EC000BC4600DF80BD0000AF3D000880B5EFF3D9
:102ED0000580002801D0822080BDEFF31480C00758
:102EE00003D0034FBC4600DF80BD00F069FF80BD0A
:102EF000C13D000880B588B0EFF30580002802D0FE
:102F0000822008B080BDEFF3148081071248890F3A
:102F100006D001291AD0022910D0032918D112E0B5
:102F200008A981F309880078C0070AD0022080F33D
:102F30001488BFF34F8FBFF36F8F09E00078C0078D
:102F400006D10320F3E70078C00701D0FF20D8E7BF
:102F5000024FBC4600DFD4E79C570008393E00080A
:102F600080B5EFF30581002907D1EFF31481C9077C
:102F700003D0034FBC4600DF80BD01F015F880BDD3
:102F8000A93F000880B5EFF30581002901D000209A
:102F900080BDEFF31481C90703D1054949780029A1
:102FA00003D0044FBC4600DF80BD00F080FF80BD31
:102FB000A0010020AF3E000880B5EFF30582002A93
:102FC00007D1EFF31482D20703D0034FBC4600DFD2
:102FD00080BD00F0EFFF80BDB53F000880B5EFF386
:102FE0000582002A01D0002080BDEFF31482D207B1
:102FF00003D1054A5278002A03D0044FBC4600DFB3
:1030000080BD00F06BFF80BDA0010020DD3E000808
:10301000034FBC4600DF034FBC4600DFFEE7000065
:10302000513F00086D3F0008FEE7FEE707480168D2
:103030000748416100218161072101610548016A5A
:10304000FF2212061143016240177047985700088B
:1030500000E000E000ED00E07047002804D0012807
:1030600003D0072803D004207047022070470620B1
:1030700070470000F8B5064600201546009070190C
:103080000F46642801D90120F8BD00200DE0321858
:1030900014214A4322495118C97B012903D002292E
:1030A00001D00420F8BD401C80B2A842EFD3002418
:1030B00017E06000395A321914204243184810189A
:1030C0004289914202D80289914201D20220F8BD80
:1030D0000269002A03D008469047002805D0641CE6
:1030E000A4B2AC42E5D3002416E00520F8BD3019A7
:1030F0001421844641430A480A1850686100038835
:10310000795A0180D07B012804D1604680B21A46EA
:10311000FFF7C4FC641CA4B2AC42E8D30098F8BD2D
:103120006C4700080146EFF31080C207D20F72B659
:103130000868002801D003680B60002A00D162B63D
:10314000704710B500280ED000290CD00B318A082A
:103150009200016844680B1A1B1B934205D2084673
:1031600009680029F5D1002010BD210007D02118E1
:1031700003680B604A6001600846083010BD426079
:10318000083010BD70B50D4600280FD00849094C15
:10319000884204D222680146104600F07BFA20687B
:1031A0004570054800F0DFF800F02EFB70BD000010
:1031B000FFFF0000A80100208012002010B50E487B
:1031C0000C4942680D480B680068934204D00A60BD
:1031D000CB88421E9A188A808A8880B2824208D19F
:1031E00000200860044800F0BEF80146024800F0E4
:1031F00079FA10BDBC01002080120020B801002027
:1032000070B51A4DE86800282FD0A88A401EA88201
:10321000002624E0A068002808D06168416060684A
:10322000002802D0A16881606660A6600F48214630
:10323000183800F057FAA08AA8826078042804D1D0
:103240000B49E08A09884018A08201206070E0687C
:10325000E860E068002801D00561E6602661A88A80
:10326000002802D1EC68002CD4D170BD9812002047
:10327000B801002070B504000ED00C4DA17828686C
:103280000126827891420BD900F04AFA28684670EC
:10329000204600F0B9FA70BD054800F064F8F8E780
:1032A00066702146024800F01DFA70BDA80100209A
:1032B0008012002010B50321FFF764FF10BD00004D
:1032C00010B50446008B084320836278618B062A80
:1032D00017D0052A14D1084212D00A460240628350
:1032E00088432083204600F044FA01206070628BFE
:1032F0000821204600F039FA2146044800F0F2F98E
:1033000010BD0A468243EBD010BD000080120020A1
:10331000814202D342688A4201D801207047EFF30C
:103320001082D207D20F72B603680B60016000D121
:1033300062B600207047002810D000290ED000226D
:10334000083903E002460068002807D08842F9D116
:10335000002A05D0006810600020704701207047E7
:1033600000214160F8E70146406842684A600B78F6
:103370000022022B05D0012B03D0032B01D0426089
:1033800070474368002B01D09960426082607047AB
:1033900070B5044615460020207001226270224656
:1033A000A170203211716060A060E0602061206235
:1033B000A082E082208360835071E08C002803D1DA
:1033C0000448FFF7AFFEE0622946204600F01EF8F1
:1033D00070BD000090070020002801D0082901D20C
:1033E000012070474118091F002201600A604260F5
:1033F0001046704703480021016003490988C180D5
:1034000070470000BC01002094570008F0B5C28C42
:10341000194D930802D12A881204930CC26A9C00A9
:103420001219540700D5121F01242406403AD46310
:10343000002491632646A700641CD6510E2CFAD3B3
:10344000C4691462826201632968C9000FD5112B17
:103450000DD9103B5908094B02E0083A536013603C
:10346000491EFAD1C16A121F8A4200D91360C06A8C
:1034700003490160F0BD000090570008CCCCCCCCD3
:10348000A52E5AE2C1898089081A7047012202706C
:103490000022427082704260028142818281034A2E
:1034A00089038918090CC181704700000000FCFFE6
:1034B000F8B50446406800270D46002844D06078DF
:1034C0000126012837D0022813D0032832D108461C
:1034D000FFF728FE05002DD02046FFF744FF0446E5
:1034E000294600F03FF96670204600F042F9214677
:1034F0001DE02046FFF737FF0546002100F032F9B6
:103500002189E86989000919086172B6A089401CFF
:10351000A08162B62089401C80B22081E189884266
:1035200000D127816E70284600F023F92946134800
:1035300000F0D8F8F8BD2046FFF715FF04462A46EC
:10354000102100F012F9CEE7A089E189884211D25A
:10355000208980000019056172B6A089401CA081F5
:1035600062B62089401C80B22081E1898842E1D185
:103570002781F8BD0320FFF757FDF8BD801200201A
:1035800010B5002812D0411C11D00B490B4C8842B9
:103590000BD87D21C900484309490A6880181146A3
:1035A000401EFCF77DFEA04204D9204610BD034812
:1035B000401C10BD80B210BD00093D00FEFF0000A0
:1035C000A857000870B518480121026851700068BA
:1035D00000F0A6F8154C657813E0E800011948687A
:1035E0000278002A17D0012A1AD000F0F1F8E0780A
:1035F0006D1C854200D1002572B6A078401EA070D7
:1036000062B6A0780028E8D165700948FFF7ABFEE4
:1036100000F0FAF870BD098989B2FFF751FEE6E7BC
:103620008968FFF745FFE2E7A8010020B8110020F4
:103630008012002005480178002902D00121417044
:10364000704701200249000748607047B001002020
:1036500000ED00E070B50E4BDD789C1C1E4672B686
:103660009A78AA4207D2521C22703278541CAC427B
:1036700000D10024347062B6DC78944204D9D200C0
:10368000D2189160506070BD0220FFF7CDFC70BD74
:10369000B811002010B5124AD368002B17D013467A
:1036A0009B8A04E0002C12D02246A48AE318D46836
:1036B0008B42F7D3C460D0600261C468002C00D094
:1036C0002061591A8182908A401A908210BD00248C
:1036D000C460D060C91A02619182848210BD00006A
:1036E0009812002030B502780023022A03D0012A64
:1036F00001D0032A00D101238C7800E010464268F3
:10370000002A02D09578A542F8D24A604160002B89
:1037100004D0002A00D09160886030BD0020FBE713
:1037200003494A6842600022826048607047000096
:103730008012002010B583680446002B05D1607804
:1037400001280CD1064B03E09B6818780028FBD0B9
:10375000204600F023F821461846FFF7C3FF10BDAE
:1037600080120020806A01627047806A42620162B2
:10377000704710B5016900290FD0C268CA60C368DC
:103780000022002B07D08B8A848A1B198B82C36886
:103790001961C26000E08A82026110BD816800295F
:1037A00007D042684A604168002901D0806888607B
:1037B0007047064906E04A68824202D14068486084
:1037C000704711460029F6D1704700008012002092
:1037D00010B5416800290FD0FFF7C5FD0446FFF77B
:1037E000C8FF0120607001462046FFF7BBFF21465D
:1037F0000348FFF777FF10BD4188491C418010BD89
:103800008012002070470000024948600221417088
:1038100070470000A801002070B500200446204930
:10382000204A02E08300CC50401C13889842F9D310
:103830001D48342201881D48FEF750F91C4801211B
:103840000088C90780B242181A4801681A48FEF772
:1038500045F91A480822018819480068FEF73EF920
:10386000184DFF20E870EC84174A00212846FFF726
:103870008FFD164804210170446015480170C46032
:10388000046184821348154905600220687012485B
:10389000047044700978C170FFF7ACFD70BD000082
:1038A0003C1200208C570008B0570008B0060020DA
:1038B00090570008B457000890070020C857000828
:1038C000700100204C1200202B30000880120020D4
:1038D00098120020A8010020B8110020BC57000851
:1038E00010B51448016AFF22120411430162C16934
:1038F000026A5202920E92061143C161FFF796FBD3
:103900000D490028086013DB82080C499200511809
:103910000A688307DC0EFF23A3401A430A60C2062D
:10392000D20E012191404009054A800080180160B3
:1039300010BD000000ED00E0B401002000E400E054
:1039400000E100E010B50B480121026851700068E9
:10395000FFF7E6FEFFF732FC07480168491C0160EB
:10396000FFF74EFC00F032FB0448FFF7FCFCFFF7CA
:103970004BFF10BDA8010020B801002080120020DC
:10398000002805D0810702D10178002900D000204D
:103990007047000030B50C4C0023626805E0956864
:1039A0008D4204D813461268491B002AF7D10260E1
:1039B0008160002A02D09568691A9160002B01D0BD
:1039C000186030BD606030BDA0010020FFB5080662
:1039D00081B01E4617460D46000E00D14D1C1648FC
:1039E000FFF7A0FB041E18D02802000CE762E08459
:1039F000E661E9B22046019AFFF7CAFC01250F48AB
:103A00000F4906E0AA001218803AD26F002A06D0A9
:103A10006D1C0A889542F5D9002005B0F0BD002D37
:103A2000FAD0A90008188038C467E5702046FFF76F
:103A300021FC2846F1E70000B00600203C120020DF
:103A40008C570008F8B54F4D00262968002802D091
:103A5000CA7882423ED14E70FCF747FB29688862E3
:103A6000FFF7D0FE2868046A20E06068002818D0BC
:103A70002046FFF778FC07460021FFF773FE384623
:103A8000FFF777FE0120787039463F48FFF72AFE9E
:103A90000120E1686080A760386AE0603C620C4603
:103AA00004E0E0686680A660E6600446002CDCD195
:103AB0002868C1788A00354951188039CE67C16AB3
:103AC0003348FFF725FC29683248CE62FFF720FC17
:103AD0002E6051E03049098888420FD881002B4878
:103AE000081880380090C56F002D07D02846FFF7D2
:103AF00055FE2846FFF73DFE2C6A22E0FF20F8BD68
:103B00006068002818D02046FFF72DFC07460021EA
:103B1000FFF728FE3846FFF72CFE01207870394663
:103B20001948FFF7DFFD0120E1686080A760386A6F
:103B3000E0603C620C4604E0E0686680A660E660F7
:103B40000446002CDCD10098C6671148E96AFFF7EB
:103B5000DFFB29460F48EE62FFF7DAFB0A484068B0
:103B60008178084802689378994208D901215170F8
:103B700001680548FFF7B6FD0020FFF77BFB00203A
:103B8000F8BD0000A8010020801200203C12002097
:103B900090070020B00600208C57000870B51B4D20
:103BA000002811D01A4A1288904220D88200194861
:103BB00010188038C46F002C19D0A1702420015532
:103BC0002868A04205D014E0286881702868203059
:103BD0000171114840688078884215D90E482968DB
:103BE000FFF780FD29680120487000200AE0FF20CF
:103BF00070BD2046FFF79EFD6078012804D106487D
:103C0000FFF7B1FBFFF736FB002070BDA8010020D5
:103C10008C5700083C1200208012002002480068E7
:103C2000002800D0C0787047A8010020FEB500250C
:103C30002C46002803D0012803D0FF20FEBDDF2042
:103C400001E04C4D1B20694608704B4A00201421AE
:103C500041438918496847000E884849401C80B292
:103C6000CE536428F3D368460078DF2821D0C822D9
:103C700029464248FDF7C8F80020401C80B20A28B7
:103C8000FBD33E48C8222946C830FDF778F83B4AA6
:103C900000201346C8334100565A595A8E4201D06B
:103CA000641CA4B2401C80B26428F4D3002C4ED013
:103CB0005EE000273D4630E0002D2ED0012D2FD0B4
:103CC000A526B600C82231462C48FDF79DF80020F5
:103CD000401C80B20A28FBD32848C8223146C8308D
:103CE000FDF74DF8254B0020C833244A4100525AB5
:103CF000595A8A4201D0641CA4B2401C80B2642884
:103D0000F3D3002C0FD07F1CFFB26D1CADB2032D7E
:103D1000D2D3022F19D200242AE0FF260136D1E7A0
:103D2000FF26CB36CEE764211448FEF737FA694602
:103D300088803146C831022201A8FDF765F80122CA
:103D400000216846FDF760F8DFE73C4610E064219B
:103D50000A48FEF723FA694688802946C8310222BC
:103D600001A8FDF751F8012200216846FDF74CF843
:103D70002046FEBD5E0300006C470008C401002021
:103D800008B5002805D0012805D002280DD09B20B9
:103D900002E0DF2000E01B206946087001220021BC
:103DA0006846FDF731F8012008BDFF20F4E710B5A3
:103DB000002804D0FFF7E4FBFFF77CFA402010BD99
:103DC00010B5154C207800280DD11448400706D1B5
:103DD000134801681148FFF7FFFA002801D0852039
:103DE00010BDFFF719FD0F49FF2009688870207882
:103DF00000280BD100210C4800F044F80B49086062
:103E000000210B4800F06AF80A4908600120207080
:103E10000020607010BD0000A0010020A00F002055
:103E2000B8570008A8010020C057000888010020EA
:103E3000900600208401002070B5104D687800289D
:103E400001D0002070BD0E4C206820300179002088
:103E5000FFF7A4FE2068C178FF2903D1816A2031D1
:103E600081F309886168002902D160600020206028
:103E7000FFF736FD01206870E3E70000A001002095
:103E8000A801002010B5040008D02168002905D041
:103E90006068002802D00278002A01D0002010BDFE
:103EA0008900103189B2FFF7F1FA606810BD10B5D2
:103EB000040011D0216800290ED06268002A0BD0BE
:103EC000A068002808D0D21C9208920051430C31FF
:103ED000FDF704FEA06810BD002010BD70B50E46B1
:103EE00004002CD02068002829D06068C11C26DB83
:103EF000032824DCE168002905D01248FFF721F9E6
:103F0000051E15D000E00025E06861680002091D6B
:103F1000014333462A462068FFF758FD002808D0A1
:103F20000949800040188038C06F0849826A51638F
:103F300070BD002D03D029460248FFF7FCF9002090
:103F400070BD0000A00F00203C12002011300008BE
:103F500010B5FFF763FE002804D003498000401825
:103F60008038C06F10BD00003C12002010B5FFF774
:103F700007FD002804D0C18C002903D0C46A02E0E8
:103F8000802010BD0024C078FFF75CFDFF2807D01B
:103F9000002C03D021460348FFF7CDF9002010BDC7
:103FA000812010BDA00F002010B5002801D0FFF720
:103FB000B9F810BD10B5002805D0FFF7A9F9002801
:103FC00000D0862010BD802010BD0000F8B5134E33
:103FD0007468002C1BD0A068114F401EA06013E035
:103FE000254624687460002229463868FEF728FEBA
:103FF000002802D00420FFF717F86879012807D0BD
:1040000001202871002C02D0A0680028E8D0F8BD5B
:104010002846E968FFF7BEFCF4E70000A001002095
:1040200088010020F8B56420FEF742FF364B0020DF
:104030000C214143CA185168002901D012890A8015
:10404000401CC0B24628F3D3012200216846FCF789
:1040500096FE684600781B2814D09B2814D0DF28D1
:104060000ED002200126294C00280FD001282CD088
:10407000022836D0FEF79AFD054601281BD115E02F
:104080000020EFE70120EDE70320EBE700273D46A6
:104090002846FEF7C5F8C0196D1CADB287B2642D75
:1040A000F6D3002F05D00025002D04D0208C3043FE
:1040B00004E03546F8E7208C40084000208413498E
:1040C0000020803988802846F8BDFEF787FD054628
:1040D0000128F0D10020FFF7A9FD0020FFF750FED6
:1040E000E4E7FEF763FD05460128E4D1208C304368
:1040F00020840020FFF79AFD0120FFF797FD0020A4
:10410000FFF73EFEDBE700003C4F0008D403002031
:104110000122054B8240188C012902D0904318845B
:1041200070471043FBE70000D40300200548406AB5
:1041300080B2FE2801D2FF3001E0FF38013880B2A2
:104140007047000000440140FEB501214F0438468D
:10415000FDF72AF901218803FDF73EF90921012223
:10416000C806FCF79FFD092001220A21C006FCF7C2
:1041700099FD03204002009002216846017100244D
:1041800084710126C6710325457109206946C00660
:10419000FCF750FD01213846FDF706F9F7026846A5
:1041A000009706718471C471457109206946C00683
:1041B000FCF740FD09203946C006FCF791FDFEBD25
:1041C000F0B50746154887B001680902090A0024BE
:1041D000016001261249F0061B250860FFF7B4FFB5
:1041E00000970C200F4F04900194029403946946A9
:1041F00005943846FDF7C2FB01213846FDF77BFBED
:10420000684605764476867606A8FDF765F80122AD
:1042100005493846FDF79CFB07B0F0BD18E400E007
:1042200000E100E0003801400501050070B50A4DCD
:10423000FF23EE1D1A46F93605E0047854402A5D46
:104240005A40335D401C0C46491E89B2002CF4D103
:104250001802104370BD00008C550008F8B50446E4
:1042600034490020344D8C4203D36881FDF75CF85B
:10427000F8BD002C48D03149688A0E88E1273F01FB
:10428000B04202D9811B642904DAB04212D2301A3A
:1042900064280FDB7D213046C90048433946FBF7CF
:1042A000FFFFE8813046062148432421FBF7F8FF51
:1042B000A8706E821F4839463230001B7043FBF7EE
:1042C000EFFFE8800646EF8920467D217843C9004C
:1042D000FBF7E6FF80B21A492882CC840E85488518
:1042E00069898142C4D00524002911D06A792B79CB
:1042F0001A43BDD1814213D90A1A642A17DDD00F9F
:1043000080184010081A12E06881FDF715F8F8BD12
:1043100003202871F800C01B0A21FBF7C1FF06E04B
:10432000421A642A03DDD00F8018401040186881BB
:104330006C71F8BDDC0500006C0000204E00002010
:104340001404002010B5104C2079002805D0FCF78B
:10435000F3FF2079401E207110BD60890028FBD03A
:104360000A49094A48840A490C324988401A0021FE
:10437000517080B20121FCF733FF60790028EBD047
:10438000401E607110BD00006C000020140400206D
:104390005400002070B5184E184D002816D000208B
:1043A0006870FFF7C3FE04460420285EB04206DAB8
:1043B0000019288101B20120FCF792F8E88010482A
:1043C000E98881876042A880A88170BDFFF7AEFEB2
:1043D0000C210A4C695E1034B14206DA08182080BC
:1043E00001B20020FCF77CF82080208804494008B6
:1043F00060804031088070BDA8610000440000204A
:10440000D4030020F8B501260927F602FF06114C57
:104410000D46002813D040212046FDF776FA0028EB
:10442000F9D031463846FCF75BFC01220A492046A8
:10443000FDF78EFA0949002D07D0012206E031462A
:104440003846FCF74FFC0022F0E700222046FDF73B
:104450007FFAF8BD0038014005010500070107009B
:1044600010B5094C01212046FDF78FF900220121EA
:104470002046FDF7A3F900212046FDF7A7F900210A
:104480002046FDF785F910BD0004004010B5094C29
:1044900001212046FDF779F9012211462046FDF75A
:1044A0008DF900212046FDF791F901212046FDF705
:1044B0006FF910BD0004004010B508494A78012A80
:1044C0000AD10A89101880B20881CA88904203D3A1
:1044D00000204870FCF728FF10BD00006C00002091
:1044E00010B50621FBF7DCFE074C002901D003299B
:1044F00005D1FCF721FF0120607000202081E078C9
:10450000401CE07010BD00006C000020054A042132
:10451000515E054B994204DA091891809189081877
:104520009081704744000020A8610000034908788A
:10453000322801D2401C0870704700006C00002037
:10454000054902464B780020002B04D008781070F3
:1045500000204870012070475C01002002490020C3
:1045600048700120704700005C01002002490122D0
:104570004A700870104670475C01002010B5044670
:104580000248FDF753FA2070012010BD00380140A9
:1045900010B50846FFF714FE012010BD10B581B21A
:1045A0000248FDF747FA012010BD00000038014025
:1045B000F0B5074685B001210220FCF701FF102667
:1045C00069460E7000244C7001258D706846FCF71A
:1045D00083FE144812490068FBF762FE6946401EDC
:1045E000029788808C81CC800F4C01A92046FDF772
:1045F000EFF869460E704D708D706846FCF76CFEE2
:1046000001212046FDF7C1F8002201212046FDF7D7
:10461000D5F800212046FDF7BBF8012005B0F0BD1C
:10462000204E00008C0100200004004038B5184CDA
:1046300000252078002801D0C046C0466846FFF714
:104640009DFF6178002906D0124A012907D002296E
:1046500010D0032901D1FFF719FF284638BD0020EB
:10466000A08068460078A1885218491CA18010706B
:1046700002200BE0A088FF2807D868460178A088B0
:104680001218401CA0801170E5E703206070E2E77B
:10469000500100209005002070B50F4D002468786F
:1046A00000280FD002280CD003280ED068780028EC
:1046B0000BD06878022808D06878032805D0C04657
:1046C000C0460120FFF752FF0446FFF7C9FE012054
:1046D0006870204670BD00005001002070B5164C77
:1046E00000256078012801D0C046C0462178002905
:1046F00002D001291ED104E000210120FFF782FE33
:1047000018E0608800280BD0A16800200856FFF749
:1047100045FFA068401CA0606088401E608009E0E2
:104720000320FFF723FF054600210120FFF76AFE63
:1047300000202070284670BD50010020752200081E
:10474000000000000100000000000000B921000886
:10475000010000000100000000000000F91E000838
:104760000000000001000000000000000000000048
:104770005403002000000A000000000100000000B7
:1047800001000000000000000000FFFF0000020127
:104790000000000002000000000000000000FFFF19
:1047A0000000020100000000030000000000000003
:1047B0000000FFFF000002010000000004000000F4
:1047C000000000000000FFFF0000020100000000E8
:1047D00005000000000000000000FFFF00000201D3
:1047E0000000000006000000000000000000FFFFC5
:1047F00000000201000000000700000000000000AF
:104800000000FFFF0000020100000000080000009F
:10481000000000000000FFFF000002010000000097
:1048200009000000000000000000FFFF000002017E
:10483000000000000A000000000000000000FFFF70
:1048400000000201000000000B0000008C030020AB
:1048500000000F0003000301000000000C00000036
:104860008E03002000001F001F0003010000000055
:104870000D0000009003002000000300030003016E
:10488000000000000E000000920300200000030062
:1048900003000301000000000F000000740300206B
:1048A0000000FF00000002010000000010000000F6
:1048B0006603002000000500000001010000000068
:1048C0001100000068030020010020000100010128
:1048D000000000001200000058030020000001004A
:1048E0000000030100000000130000005A03002034
:1048F0000000C800000003010000000014000000D8
:104900005603002000000300030002010000000025
:10491000150000005E0300200000FFFF0000020100
:104920000000000016000000600300200000FFFFF0
:1049300000000201000000001700000062030020D8
:104940000000FFFF0000020100000000180000004E
:10495000640300200000FFFF0000020100000000CF
:1049600019000000000000000000FFFF000002012D
:10497000000000001A0000006A03002000008813F5
:10498000F4010201000000001B0000006C03002085
:104990000000983A94110201000000001C00000081
:1049A000700300200000FFFF000002010000000073
:1049B0001D0000006E030020E8037017F8110201CB
:1049C000000000001E000000760300200000FFFF32
:1049D000E4070201000000001F000000780300202F
:1049E0000000FFFF0800020100000000200000009E
:1049F0007A0300200000FFFF010002010000000018
:104A0000210000007C030020E803B80B140502011C
:104A100000000000220000007E0300202C01BC02E8
:104A2000F4010201000000002300000080030020C8
:104A3000B80B8813B80B020100000000240000002E
:104A400082030020701710271027020100000000C9
:104A50002500000084030020010002000100020183
:104A60000000000026000000860300200100020074
:104A70000100020100000000270000008803002060
:104A800000000100000002010000000028000000FA
:104A90008A0300200000640000000202312B00089D
:104AA00029000000A6030020000007000400020106
:104AB000000000002A000000A403002001000807F5
:104AC00002000201000000002B000000A8030020EB
:104AD000000096000A000201000000002C00000007
:104AE000000000000000FFFF0000020100000000C5
:104AF0002D000000B20300200000070004000201A6
:104B0000000000002E000000B00300200100080794
:104B100002000201000000002F000000B40300208A
:104B2000000096000A0002010000000030000000B2
:104B3000000000000000FFFF000002010000000074
:104B400031000000BE030020000007000400020145
:104B50000000000032000000BC0300200000080735
:104B6000000002010000000033000000C00300202C
:104B70000000840314000201000000003400000063
:104B8000000000000000FFFF000002010000000024
:104B900035000000CA0300200000070004000201E5
:104BA0000000000036000000C803002001000807D4
:104BB000020002010000000037000000CC030020CA
:104BC0000000840390010201000000003800000092
:104BD000000000000000FFFF0000020100000000D4
:104BE00039000000000000000000FFFF000002018B
:104BF000000000003A000000000000000000FFFF7D
:104C000000000201000000003B0000000000000066
:104C10000000FFFF00000201000000003C00000057
:104C2000000000000000FFFF000002010000000083
:104C30003D000000000000000000FFFF0000020136
:104C4000000000003E000000000000000000FFFF28
:104C500000000201000000003F0000000000000012
:104C60000000FFFF00000201000000004000000003
:104C7000000000000000FFFF000002010000000033
:104C800041000000000000000000FFFF00000201E2
:104C90000000000042000000000000000000FFFFD4
:104CA00000000201000000004300000000000000BE
:104CB0000000FFFF000002010000000044000000AF
:104CC000000000000000FFFF0000020100000000E3
:104CD00045000000000000000000FFFF000002018E
:104CE0000000000046000000000000000000FFFF80
:104CF000000002010000000047000000000000006A
:104D00000000FFFF0000020100000000480000005A
:104D1000000000000000FFFF000002010000000092
:104D200049000000000000000000FFFF0000020139
:104D3000000000004A000000000000000000FFFF2B
:104D400000000201000000004B0000000000000015
:104D50000000FFFF00000201000000004C00000006
:104D6000000000000000FFFF000002010000000042
:104D70004D000000000000000000FFFF00000201E5
:104D8000000000004E000000000000000000FFFFD7
:104D900000000201000000004F00000000000000C1
:104DA0000000FFFF000002010000000050000000B2
:104DB000000000000000FFFF0000020100000000F2
:104DC00051000000000000000000FFFF0000020191
:104DD0000000000052000000000000000000FFFF83
:104DE000000002010000000053000000000000006D
:104DF0000000FFFF0000020100000000540000005E
:104E0000000000000000FFFF0000020100000000A1
:104E100055000000000000000000FFFF000002013C
:104E20000000000056000000000000000000FFFF2E
:104E30000000020100000000570000000000000018
:104E40000000FFFF00000201000000005800000009
:104E5000000000000000FFFF000002010000000051
:104E600059000000000000000000FFFF00000201E8
:104E7000000000005A000000000000000000FFFFDA
:104E800000000201000000005B00000000000000C4
:104E90000000FFFF00000201000000005C000000B5
:104EA000000000000000FFFF000002010000000001
:104EB0005D000000000000000000FFFF0000020194
:104EC000000000005E000000000000000000FFFF86
:104ED00000000201000000005F0000000000000070
:104EE0000000FFFF00000201000000006000000061
:104EF000000000000000FFFF0000020100000000B1
:104F000061000000000000000000FFFF000002013F
:104F10000000000062000000000000000000FFFF31
:104F2000000002010000000063000000000000001B
:104F30000000FFFF00000201000000000000000070
:104F4000D20300204600000001000000D40300202E
:104F50006400000002000000D603002002100000E0
:104F600003000000D803002000100000040000002F
:104F7000E00300200000000005000000DE03002028
:104F80000000000006000000DC030020000000001C
:104F900007000000DA030020000000000800000005
:104FA000E40300201720000009000000E2030020B5
:104FB000080900000A0000001E0400200000000094
:104FC0000B000000F4030020000000000C000000B3
:104FD000FE030020000000000D000000F60300208A
:104FE000000000000E0000000000000000000000B3
:104FF0000F00000000000000000000001000000092
:10500000EA03002000000000110000000000000082
:105010000000000012000000EC030020000000006F
:1050200013000000EE030020000000001400000048
:10503000F003002000000000150000000004002024
:105040000000000016000000020400200000000024
:1050500017000000040400200000000018000000F9
:1050600006040020000000001900000008040020D1
:10507000000000001A0000000A04002000000000E8
:105080001B0000000C040020000000001C000000B9
:105090000E040020000000001D00000000000000C1
:1050A000000000001E0000001004002000000000AE
:1050B0001F0000001204002000000000200000007B
:1050C0001404002000000000210000002004002043
:1050D0000000000022000000220400200000000068
:1050E000230000002604002000000000240000002F
:1050F0002804002000000000250000002A040020F1
:1051000000000000260000002C0400200000000029
:10511000270000002E0400200000000028000000EE
:1051200030040020000000002900000032040020AC
:10513000000000002A0000003404002000000000ED
:105140002B00000036040020000000002C000000AE
:1051500038040020000000002D0000003A04002068
:10516000000000002E0000003C04002000000000B1
:105170002F0000003E04002000000000300000006E
:105180004004002000000000310000004204002024
:105190000000000032000000440400200000000075
:1051A000330000004604002000000000340000002E
:1051B0004804002000000000350000004A040020E0
:1051C00000000000360000004C0400200000000039
:1051D000370000004E0400200000000038000000EE
:1051E000500400200000000039000000520400209C
:1051F000000000003A0000005404002000000000FD
:105200003B00000056040020000000003C000000AD
:1052100058040020000000003D0000005A04002057
:10522000000000003E0000005C04002000000000C0
:105230003F0000005E04002000000000400000006D
:105240006004002000000000410000006204002013
:105250000000000042000000640400200000000084
:10526000430000006604002000000000440000002D
:105270006804002000000000450000006A040020CF
:1052800000000000C100CC00D700E300EF00FC00EC
:105290000901170126013501440154016501770117
:1052A00089019B01AF01C301D701EC010202190280
:1052B0003002480261027B029502AF02CB02E70294
:1052C000040321033F035E037D039D03BD03DF034E
:1052D00000042204450468048C04B004D404F904D6
:1052E0001E0544056A059005B705DD0504062B0675
:1052F00052067906A106C806EF0617073E0765079E
:105300008C07B307DA07000827084D0873089808C8
:10531000BE08E20807092B094F0972099509B80967
:10532000DA09FC091D0A3E0A5E0A7D0A9D0ABB0ACB
:10533000D90AF70A140B310B4D0B690B840B9E0B2A
:10534000B80BD20BEB0B030C1B0C330C4A0C600C90
:10535000760C8C0CA10CB50CC90CDD0CF00C030DFB
:10536000150D270D380D490D5A0D6A0D7A0D890D51
:10537000990DA70DB60DC40DD10DDF0DEC0DF80D77
:10538000040E100E1C0E280E330E3E0E480E530E49
:105390005D0E660E700E790E820E8B0E940E9C0EB4
:1053A000A40EAC0EB40EBC0EC30ECA0ED10ED80E97
:1053B000DF0EE50EEC0EF20EF80EFE0E040F090FD6
:1053C0000F0F140F190F1E0F230F280F2C0F310F63
:1053D000350F3A0F3E0F420F460F4A0F4E0F520F36
:1053E000550F590F5C0F600F630F660F690F6D0F3C
:1053F000700F720F750F780F7B0F7E0F800F830F6A
:10540000850F0000030004000100003C01000300C0
:1054100004000100003C0200030004000100003C05
:105420000300030004000100003C00000400000031
:105430000C000000DC0400201027E926E926E926FC
:10544000E926E926E926E926E926E926E226E226F2
:10545000E226E226E226E226CF26CF26CF26CF2658
:10546000B926B926B926A026A02689267A266E2630
:1054700061265326472639262A2618260726F6258A
:10548000E325D225BE25A82596257F2567254D2510
:1054900035251725FE24E024C224A52486246A2469
:1054A0004A242B240324DC23B0238B235E233123C3
:1054B0000323D622A422722240220D22D521A1212B
:1054C00066212421E820AB2070202E20EC1FA81F8D
:1054D000681F2B1FE81EA01E581E0D1EC41D7E1D1A
:1054E000351DEE1CA11C561C081CB71B6D1B1C1B7C
:1054F000CB1A781A241AD6197E192C19DB188018A1
:105500002A18D4177D172B17D01676161B16C01520
:1055100065150A15AF145414F9139E134313E812BA
:105520008E122D12D21171111711BC105E10FF0FC7
:10553000A00F400FEA0E8E0E330ED80D770D1C0D06
:10554000C20C690C0A0CB30B5C0B010BA80A500AC5
:105550000000000040000000000000488000000043
:1055600000000048010000000004004802000000A4
:105570000014004801000000001400480200000070
:1055800000040048001000000000004800C18140F5
:1055900001C0804101C0804100C1814001C0804103
:1055A00000C1814000C1814001C0804101C08041F3
:1055B00000C1814000C1814001C0804100C18140E3
:1055C00001C0804101C0804100C1814001C08041D3
:1055D00000C1814000C1814001C0804100C18140C3
:1055E00001C0804101C0804100C1814000C18140B3
:1055F00001C0804101C0804100C1814001C08041A3
:1056000000C1814000C1814001C0804101C0804192
:1056100000C1814000C1814001C0804100C1814082
:1056200001C0804101C0804100C1814000C1814072
:1056300001C0804101C0804100C1814001C0804162
:1056400000C1814000C1814001C0804100C1814052
:1056500001C0804101C0804100C1814001C0804142
:1056600000C1814000C1814001C0804101C0804132
:1056700000C1814000C1814001C0804100C1814022
:1056800001C0804101C0804100C1814000C0C10112
:10569000C30302C2C60607C705C5C404CC0C0DCDA2
:1056A0000FCFCE0E0ACACB0BC90908C8D81819D912
:1056B0001BDBDA1A1EDEDF1FDD1D1CDC14D4D51542
:1056C000D71716D6D21213D311D1D010F03031F132
:1056D00033F3F23236F6F737F53534F43CFCFD3D62
:1056E000FF3F3EFEFA3A3BFB39F9F83828E8E92952
:1056F000EB2B2AEAEE2E2FEF2DEDEC2CE42425E502
:1057000027E7E62622E2E323E12120E0A06061A171
:1057100063A3A26266A6A767A56564A46CACAD6D21
:10572000AF6F6EAEAA6A6BAB69A9A86878B8B97991
:10573000BB7B7ABABE7E7FBF7DBDBC7CB47475B5C1
:1057400077B7B67672B2B373B17170B050909151B1
:105750009353529296565797559594549C5C5D9DE1
:105760005F9F9E5E5A9A9B5B9959589888484989D1
:105770004B8B8A4A4E8E8F4F8D4D4C8C4484854581
:10578000874746868242438341818040040000006F
:10579000000201000A0001007FBB000001000000C0
:1057A0000200010052000400E803000000000000B5
:1057B000DC000000100800001802000010000000CB
:1057C00000000000A006002000000000EC570008C8
:1057D00000000020C40100004003000848580008F1
:1057E000C4010020EC140000CE1A0008013013257B
:1057F0001B1B0855041AB1041ADD0461120C43A8DE
:105800006143204EA5940294020326DC0503187818
:1058100078994D0121320313BD2433081013E52577
:105820003308061AB30832171A170801722D01023D
:1058300003040465060708094B612D88EA01DD7B36
:085840006CDC0EC932011E00F0
:0400000508000249A4
:00000001FF
